:020000041000EA
:1000000000B5324B212058609868022188439860DF
:10001000D860186158612E4B002199600221596106
:100020000121F02299502B49196001219960352056
:1000300000F044F80222904214D00621196600F024
:1000400034F8196E01211966002018661A6600F04E
:100050002CF8196E196E196E052000F02FF8012189
:100060000842F9D1002199601B49196000215960AB
:100070001A491B48016001219960EB211966A021F2
:10008000196600F012F800219960164914480160C1
:100090000121996001BC002800D000471248134993
:1000A000086003C880F30888084703B5996A0420EC
:1000B0000142FBD001200142F8D103BD02B5186610
:1000C0001866FFF7F2FF186E186E02BD00000240BE
:1000D000000000180000070000035F00212200005C
:1000E000F4000018222000A00001001008ED00E03C
:1000F00000000000000000000000000074B24E7A12
:1001000000200420F7010010C3010010C5010010F9
:10011000C1010010C1010010C1010010C101001097
:10012000C1010010C1010010C1010010C701001081
:10013000C1010010C1010010C9010010CB01001065
:10014000CD010010CD010010CD010010CD01001037
:10015000CD010010CD010010CD010010CD01001027
:10016000CD010010CD010010CD010010CD01001017
:10017000CD010010CD010010CD010010CD01001007
:10018000CD010010CD010010CD010010CD010010F7
:10019000CD010010CD010010CD010010CD010010E7
:1001A000CD010010CD010010CD010010CD010010D7
:1001B000CD010010CD010010CD010010CD010010C7
:1001C00000BE00BE00BE00BE00BE00BE00F04BF888
:1001D000103800BEF2EB88712C7400105C740010B3
:1001E0003402001090A31AE700202149086006C8D5
:1001F00081F3088810471F48006800282FD10DA4FC
:100200000ECC002902D000F012F8F9E71A491B4A77
:10021000002000E001C19142FCD1194988471949E9
:1002200088471949884700BEFDE701C901C29A42C3
:10023000FBD370475C740010C000002080030020D6
:100240001C77001000000420000004201C77001020
:1002500000100420001004200000000070470B482C
:1002600005F082FA0047EFF30580C0B27047000046
:1002700008ED00E0000000D080030020680D0020A1
:10028000F538001089040010E539001057560000B9
:1002900006005250ABB36053A073001006005250DA
:1002A000861C0302B0730010060052505422A29D17
:1002B000B873001005005250DE65F4681C7700101A
:1002C000F8B5C0460448054B10B5834203D0044B33
:1002D000002B00D0984710BD800300208003002031
:1002E0000000000006480749091A8B10C90FC918F9
:1002F00010B5491003D0044B002B00D0984710BD17
:1003000080030020800300200000000010B5074C8F
:100310002378002B09D1FFF7D5FF054B002B02D026
:10032000044800E000BF0123237010BD80040020BA
:1003300000000000306C0010054B10B5002B03D0FE
:100340000449054800E000BFFFF7CCFF10BDC046E0
:100350000000000084040020306C00107047C0468C
:1003600010B50A4CA01D01F02BF920000E3001F051
:1003700033F920000A3001F03BF92000123001F07F
:1003800043F92100002001F0EDFF10BD4C020020D8
:1003900000B5164B83B01B68012B1CD10121144AF8
:1003A00013784B40137010D1D02380221B06D2014A
:1003B0009A61104B05221B88012000930E490F4BB8
:1003C00001F00CFA012003B000BDD02380221B06EF
:1003D000D2015A61EDE7074B05221B8808490093BB
:1003E0000120064B01F0FAF9ECE7C0463C0500207D
:1003F0008205002040020020440200203C02002030
:10040000640200207047C04610B5194C84B020002B
:1004100002F0D0F96079A37862782178029020798F
:100420000190E0780090134806F0A4FA607A237AED
:10043000E279A1790090104806F09CFA607B237B5A
:10044000E27AA17A00900D4806F094FA607C237C51
:10045000E27BA17B00900A4806F08CFA607D237D48
:10046000E27CA17C0090074806F084FA04B010BD3D
:100470004C020020306C0010606C00107C6C00108E
:10048000986C0010B46C001070B50E2090B002F0A3
:10049000E7F9192002F0E4F9D024802324069B0414
:1004A00063628023DB01636280239B010121A362DD
:1004B0000D2002F0C1F902F017FD0AAB02930023F0
:1004C00001936D4B6D4A0093002302F011FD06F07D
:1004D0005DFA6B496B4806F0C3FA0121122002F065
:1004E00093F90121132002F08FF90121102002F06D
:1004F0008BF9112002F0B4F9802580236D039B0253
:100500006362642063616562A56102F067FE642036
:10051000656102F063FE01F0CFFE0021002001F0D2
:10052000F9FE06AC0021002001F006FF2200564B28
:1005300023CB23C21B6821001360012002F064F862
:10054000431C04D173E06B46DB7D002B0AD11723DB
:100550006B4419000F2002F057F8431CF3D14B48AD
:1005600006F060F9802001F0E1FB512857D180208E
:1005700001F0DCFB17236B4419000F2002F044F854
:1005800021000F2002F040F86B46DB7D012BF1D1FA
:100590002378012BEED13E4D0020290001F0E2FE30
:1005A00000203C4900F0ACFF3B4A3C493C4800F08D
:1005B000D9F8AB7D022B3ED02900002001F0D2FEFD
:1005C000384806F02FF9FFF71FFF374801F0AEFB60
:1005D00022281DD1D0240125344E240663685B0BEC
:1005E0001D4209D13368002BF8D18023DB01A361C0
:1005F00063685B0B1D42F5D0FA2002F0EFFD6368E3
:100600005B0B1D42FBD133685A4253413360EAE72A
:1006100000230221264A012001F002F8DAE78020B7
:1006200001F084FB0100234806F0A4F9FEE722480C
:1006300006F0F8F896E7214806F0F4F8002405E003
:10064000002801D10134E4B2032C0CD800F02CFEB8
:100650000428F5D11A4806F0E5F8D02380221B06BD
:1006600092045A61A8E7174806F0DCF8D0238022EC
:100670001B0692049A619FE791030010F049020063
:10068000404B4C0000C00340B06D0010E86C0010FF
:100690004C02002084050020050400105D030010BA
:1006A00061030010646D0010030500003C0500208C
:1006B00001C00000046D0010D06C00103C6D0010F3
:1006C000486D0010586D001010B504220F20074926
:1006D00001F05AFB04220520054901F055FB0422D4
:1006E0000120044901F050FB10BDC046A4040020C5
:1006F000A8040020A004002010B58021002001F0F3
:10070000E9FA002001F012FB06220920014901F05C
:100710003BFB10BD480B002010B58021002001F0EC
:10072000D9FA002001F002FB04220F20094901F050
:100730002BFB04220520084901F026FB042201209E
:10074000064901F021FB06220920054901F01CFBA6
:1007500010BDC046A4040020A8040020A00400206E
:10076000480B002070B5094B094D0A4C2B600A4B11
:100770000A4E23600A4B1E60002800D02860002922
:1007800000D02160002A00D01A6070BDC906001098
:10079000740200207C02002019070010F9060010E6
:1007A0007802002010B582B069460622092001F0C7
:1007B00023FB1D4B1C681D4B200023601C4B22306B
:1007C0001B681A0E22711A0C6271E3711A0A8023D7
:1007D0001B04A3600023E36023616361A361154BE5
:1007E000A2711A7822775A7862779A78A277DA78A3
:1007F000E27720221979A1545A7921230021E25469
:100800000A2205F0ADFE2000402200212C3005F028
:10081000A7FE2000802200216C3005F0A1FEEC2311
:10082000054AE25002B010BD5C0B00200101060039
:10083000500B0020480B002063825363F0B54E46F6
:100840004546DE465746E0B593B0FFF7ABFF0023C1
:100850009A4A9B4E137053709370D370994A3068C4
:10086000137053709370D370974AF033C2500822BC
:100870000433FF32C252954B113A1978944D81548A
:10088000597801328154997801328154DA7892464C
:10089000F922514681541A799146FA2249468154E7
:1008A0005B799846FB234246C2540C222C780133D4
:1008B000C252002C00D1E0E006321300C118EC3126
:1008C0000C701900113989B26C5C013292B2002CA3
:1008D000F3D19C1C1D1DA4B2A446ACB2CD1D0631A3
:1008E000C9B207911900083189B20891190009317C
:1008F00089B2099119000A3189B20A9119000B31A4
:1009000089B20B9119000C3189B20C9119000D318B
:1009100089B20D9119000E3189B20E91190003941C
:100920005C1DA4B204949C1DA4B20594DC1DA4B269
:100930000F31DF1C651B89B21033BFB206950F91D2
:100940009BB251465546090937319F2D00D80739CA
:100950008218EC32117051460F220A4011003731D3
:10096000092A01D83032110062468218EC32117027
:100970004A4611090A004D4637329F2D00D8073AE2
:10098000C719EC3749463A700F220A401100373137
:10099000092A01D830321100039A85184246EC35F5
:1009A000297011090A00454637329F2D00D8073AB1
:1009B00004994118EC310A7041460F220A40110097
:1009C0003731092A01D830321100059A04198218EA
:1009D000EC321170069A07998218EC3211703722A6
:1009E000EC342270089A012481180622EC310A7036
:1009F00009994118EC310C700A9902344118EC3114
:100A00000C700B994118EC310A700C9A81180F2266
:100A1000EC310A703A210D9A8218EC3211700E9A5C
:100A200081183B22EC310A700F9A8118FF22EC31B9
:100A30000A703932934209D23822FF32D21A92B266
:100A4000EC3300210132C01805F08AFD0123214852
:100A50005B42119305F0E6FE1F4B89221878432371
:100A600031689200009311AB00F0B8FE13B03CBCAB
:100A700090469946A246AB46F0BD20220F92013A1D
:100A80000E92013A0D92013A0C92013A0B92013A00
:100A90000A92013A0992013A0892133A07920B32EC
:100AA000069206320592013A0492013A0392023A02
:100AB0009446212318241427013A42E7580B0020BA
:100AC0005C0B0020540B00203501013D480B002039
:100AD0006C020020E06D0010600B0020F0B5DE46D7
:100AE00057464E464546E0B597B0FFF75BFECF4B05
:100AF0001B78033B012B00D883E10123FF22CC4F5D
:100B00005B421593386815AB1393F023C949F6245B
:100B1000C15008210433FF31C152C74B1D78055520
:100B20005D78013405559D7801340555DC78A24681
:100B3000F924554605551C79A146FA244D4605551C
:100B40005B799846FB234446C454FF2A00D17FE1D9
:100B500022231122232512261293013B1193013BDC
:100B60001093013B0F93013B0E93013B0D93013B0F
:100B70000C93013B0B93013B0A93013B0993013B0F
:100B80000893013B0793013B0693013B0593013B0F
:100B90000493013B94460393013A013B0C218218D4
:100BA000EC321170E03162468C4600218B4682188F
:100BB000944461465C460C70A0498C460978002933
:100BC00000D18AE18219EC32117062465178731CAF
:100BD000002900D184E1C318EC3319706346997879
:100BE000B21C002900D17DE18218EC3211706246FE
:100BF000D178F31C002900D177E1C318EC331970C8
:100C000063461979321D002900D170E18218EC3257
:100C1000117062465179731D002900D15BE1C31840
:100C2000EC33197063469979B21D002900D161E156
:100C300007258218EC32F31D11705C1CA2B2991CBE
:100C400003928AB20492DA1C92B205921A1D92B2F1
:100C500006925A1D92B207929A1D92B216000892FD
:100C6000EA1DB21A9446AA1D9346DA1D92B2099261
:100C70001A00083292B20A921A00093292B20B920A
:100C80001A000A3292B20C921A000B3292B20D92F2
:100C90001A000C3292B20E921A000D3292B20F92DA
:100CA0001A000E3292B210921A000F3292B21192C2
:100CB0001A00103292B21D00129262461135ADB286
:100CC0008218514609090E00514637369F2900D82F
:100CD000073EC318EC331E7051460F230B401E0015
:100CE0003736092B01D830331E00039B4946C41800
:100CF0004B46EC3426701C09230037339F2900D85B
:100D0000073B04994118EC310B7049460F230B4007
:100D100019003731092B01D830331900059B44469F
:100D2000C318EC331970434619090B0037339F2C55
:100D300000D8073B06994118EC310B7041460F2350
:100D40000B4019003731092B01D830331900079BAC
:100D5000EC32C318EC3319705B4613703722089BD2
:100D60000021C318EC331A70099BC2180823EC3217
:100D700013700A9BC2180123EC3213700B9BC2182C
:100D80000323EC3213700C9BC2180623EC32137051
:100D90000D9BC2180F23EC3213700E9BC2183A231E
:100DA000EC3213700F9BC2183B23EC321370109B74
:100DB000C2181F23EC321370119BC2182123EC328E
:100DC0001370129BC218FF23EC3213709C22520046
:100DD000521BEC35401905F0C3FB194805F022FD04
:100DE000184B892218784323396892000093139B8B
:100DF00000F0F4FC17B03CBC90469946A246AB46C6
:100E0000F0BD00230A4F15A9386813918372C3728D
:100E10000D4B1B68C3600D4B1A780A705A784A70E4
:100E20009A788A70DA78CA706FE6C0467F0500202B
:100E30005C0B00203501033D480B00206C020020B4
:100E4000F86D0010600B0020A4040020580B002057
:100E50002A4A0133C252FE22294B2F251C881E2606
:100E600084525A8880235B00C252264A0233C252FF
:100E70008222254B52001C78845406225C78FF3273
:100E800084549C7801328454DB78E93A43542E230D
:100E90001293013B1193013B1093013B0F93013BD4
:100EA0000E93013B0D93013B0C93013B0B93013BD4
:100EB0000A93013B0993013B0893013B0793013BD4
:100EC0000693013B0593013B0493013B9446039336
:100ED000013A013B62E60525AFE606218B46F0E6C6
:100EE0000125AAE613000225A7E60325A5E61300BF
:100EF0000425A2E6130006259FE6C0463204000042
:100F0000A404002036040000580B002030B585B042
:100F1000FFF748FC00232B4C2B4A2068F6218372F4
:100F2000C372F033C25008220433FF32C252274B3F
:100F30001D7845545D78013145549D780131455403
:100F4000DD78013145541D79013145545979FB2330
:100F5000C1541F490133C152FE211E4B1D88455209
:100F6000598880235B00C1521B490233C152822140
:100F70001A4B49001D78455406215D78FF314554D0
:100F80009D7801314554DB78002183548423083A4D
:100F90005B00C2540A301C32FF3005F0E1FA012335
:100FA0000F485B42039305F03DFC0E4B89221878F5
:100FB000432321689200009303AB00F00FFC05B0BF
:100FC00030BDC0465C0B00203501043D480B0020BD
:100FD00032040000A404002036040000580B002056
:100FE000106E0010600B0020F0B5DE4657464546F7
:100FF0004E46E0B5744D8DB0287800F065FF0027AF
:10100000021E07D138000DB03CBC90469946A2465E
:10101000AB46F0BD6D4B2878984604AB9C46162530
:10102000414665440AAC00952300096800F0CCFCF9
:101030000004060CA3786278217802962888019033
:10104000E0780090624805F095FC2B88432BD9D1BD
:10105000434619685F4B087F1A7890423FD1487F1A
:101060005A7890423BD1887F9A78904237D1C87F96
:10107000DA78904233D12022885C1A7990422ED1BE
:1010800021225B798A5C9A4229D1534B9846187881
:101090005B789C4643469F78DD78634603433B4339
:1010A0002B436AD123780D009946637889190593FB
:1010B000A3784A4A0693E378494F079300230493A1
:1010C000484B494E9A46494B494C9B46F0358D4218
:1010D00075D22B78362B4CD89B00D3589F46454869
:1010E00005F0A0FB00278DE74046AB780370EB7856
:1010F00043702B7983706B790635C3704B463B7018
:10110000059B7B70069BBB70079BFB70DFE7AB7892
:1011100003350493DBE753460A2006351860D6E70B
:10112000A8786B783070E87870702879B07068793A
:10113000ED18F0700235CAE7A8786B782070E8786F
:1011400060702879A0706879ED18E0700235BEE70C
:101150005846AB780370EB7843702B7983706B79CA
:101160000635C370B3E70135B1E7AB1C6D785D1987
:10117000ADE7FF2BF9D10D00A9E72278904214D0FA
:10118000174B187890420BD160785A78904207D16B
:10119000A0789A78904203D1E278DB789A4281D0A5
:1011A000154805F03FFB00272CE763786345E7D13E
:1011B000A378BB42E4D1E378AB42E1D172E76B465E
:1011C0001027DF571EE7C046600B00205C0B002095
:1011D000286E0010480B0020580B0020C86E00102D
:1011E000540B0020800200209C040020A804002052
:1011F000A0040020586E0010886E0010002370B507
:10120000254CE356012B11DD0023FD22234DEB5627
:10121000991E114227D00120012B20D000230A2142
:101220001F4A237013601F4A116070BD1C4D1D4E74
:101230002A68316801209142F7D2FD21174A1278BD
:1012400052B2901E084219D0012A12D000222A6000
:101250002A6801330A32012032602370E5E7002357
:1012600000202B70DAE7FFF7E9FA012301202B7049
:10127000D4E7FFF7E3FA0023E356E7E7FFF72EFC96
:1012800000220023E3562A602A6801330A32012033
:1012900032602370C9E7C0467E0500207F0500202C
:1012A0002C05002084020020002370B57B4C82B006
:1012B000E356062B1BD07A4B7A4D9C4628780002C9
:1012C000604400F033FD22280AD1FFF78DFE237819
:1012D000C6B2042B00D9DEE0734A9B00D3589F4668
:1012E000002344220221287800F09AF9EDE7052531
:1012F000280002B070BD6D4B1B685A1C68D06C4E44
:10130000042532685B089342F2D26A4805F08AFAF3
:10131000694B1A68694B1A60694A13680133136094
:10132000FFF7DCFB0A210023664A33601160664A3E
:1013300025701370DCE7052E30D0062E79D0FFF72C
:101340005DFF0500D4E700225B4B01251A60FFF723
:1013500075FA01232370CBE7022EF0D15B4805F02C
:1013600061FA5B4B01251B681A69534B1A60FFF742
:10137000B5FB2670BCE7052E2CD0062EDFD15548D4
:1013800005F050FA00230A21494A012513604D4A0D
:1013900011604D4A137001332370A9E700234A4EB0
:1013A000464A3370444B10781978884250D04A4BE3
:1013B00003251B689847494805F034FA00230A21A1
:1013C0003B4A337013603F4A0333116023708FE749
:1013D00004258DE7424805F025FA192000F0A6FC07
:1013E00003210600192000F075FC3E4B28783E4989
:1013F00000931122304B00F0F1F905003100192063
:1014000000F068FC0D3534D0FFF780FD284A1168E4
:1014100013685B1A012BFBD9002515600A22294BA2
:101420001A60294B1D70314B1B6898472570013598
:101430005EE72F4805F0F6F900230A211C4A04252F
:101440001360204A1160204A1370013323704FE764
:10145000507859788842AAD1907899788842A6D154
:10146000D278DB789A42A2D1224805F0DBF9042534
:10147000A4E7214805F0D6F9204B01251B689847C1
:1014800000230A210A4A13600E4A11600E4A1370A3
:10149000033323702CE701252AE7C0467F0500208F
:1014A00003040000600B0020887000108002002000
:1014B0002C05002018700010A4040020AC040020AB
:1014C000500B0020840200207E050020A46F001035
:1014D0005C0B0020007000107C02002038700010AF
:1014E000BC6F001088130000D06F0010780200203D
:1014F0005C70001048700010E46F0010740200204F
:101500000023F0B5254C062283B006000D0009200B
:101510002100019300F070FC67782378E2783B4368
:10152000A77820793B436179134303430B4323D0CE
:101530001B4C1C4BA4461E701B4B1D6013186344B0
:1015400042405B184A409A18184B01A91A600F20B4
:10155000042200F019FC01A90422012000F014FC6F
:1015600000230A21124A1360124A1160124A1370B2
:10157000124A137003B0F0BD08226270D432210009
:101580000920A270D63A2370E3702371637100F0D2
:10159000FBFBE27820796179CAE7C046480B00205E
:1015A00078563412600B00205C0B0020500B00209A
:1015B0002C050020840200207E0500207F050020ED
:1015C000044B1A7802705A7842709A788270DB78ED
:1015D000C3707047A4040020044B1A7802705A7834
:1015E00042709A788270DB78C3707047A004002044
:1015F000044B1A7802705A7842709A788270DB78BD
:10160000C3707047A8040020044B1A7802705A78FF
:1016100042709A788270DB78C37070479C04002017
:10162000F0B54E4657464546DE46E0B589460600CB
:1016300090469A4687B0042800D9BEE00B000129E5
:1016400000D187E0023B032B00D99BE053465B07A8
:1016500000D5A9E05346002B0AD04B46012B00D100
:1016600093E0022B00D197E053465BB2039301E075
:1016700000210391371D3F027D1C1021280000F03E
:1016800029FB280000F052FB0028FAD10400FF21BA
:10169000B81C00F01FFB0123B340DB431AB2484BD8
:1016A00001929B4659461B8813400B80454B1B8873
:1016B0001340444A1380444A7300D45202930023D7
:1016C000424AFC1C9355200000F030FB0028FAD160
:1016D0000F230399380099434B461943C9B200F0D0
:1016E000F9FA4346002B41D0190ADBB29846381D5F
:1016F00000F0F0FA4146781D00F0ECFA01212800D4
:1017000000F0E8FA280000F011FB0028FAD10122CD
:1017100055465B462A40B2401B8801990B40134353
:101720005A461380274B274A1B880B401380264BB1
:10173000029A98520023254A9355200000F0F6FAA9
:101740000028FAD070B207B03CBC90469946A24639
:10175000AB46F0BD0F20042205A900F04DFB03208D
:10176000059B4042002B00D070E7ECE71849194870
:101770000A88531C9BB2834219D00B80D3B298467F
:10178000110AB4E705204042DDE721235246134207
:101790000AD0534659B26CE753469B06F9D55346D7
:1017A00059B2002900DA64E706204042CBE70A4B31
:1017B0000B80EF23FF21984699E701204042C2E7C2
:1017C000780500207A0500205C05002058050020DF
:1017D00088020020F0FF000000C0FFFFF0B5454682
:1017E000DE464E465746E0B583B01C000CAB060003
:1017F0008B4690461D88042800D9D8E0071D3B027F
:101800001800994600F092FA0F230340023B022B86
:1018100000D9CFE04346002B00D1CEE0207863789A
:101820000002C018A3780002C018E3780002C018B4
:101830000190002800D18BE0002D00D17AE04B46CA
:10184000DF1C380000F072FA42280CD0EF23184059
:10185000222808D00720404203B03CBC904699465D
:10186000A246AB46F0BD4846042221000C3000F0F1
:101870008BFA4846290A103000F02CFA4846E9B2A3
:10188000113000F027FA1B2000F050FA03237200F9
:101890009340184080231041DB0083401D1C9BB205
:1018A000434550D80123B3409846454BADB29A46C4
:1018B000300000F0E5FA0400380000F037FA0028A4
:1018C00043D0534642461B881A4230D0A5425AD8CC
:1018D0002A005946300000F01BFB04220F2001A90A
:1018E00000F08AFA019B002B3BD0002301934B466A
:1018F0005C1C2021200000F0EDF9200000F016FA19
:101900000028FAD14F4610240826023701E006428B
:101910003BD1380000F00AFA0442F8D01021380018
:1019200000F0D8F9019B002B26D1280094E7A542AE
:10193000BED8CDE7484600F0F9F9430700D57EE769
:101940000B20404288E74546ACE70420404283E74D
:10195000484600F0EBF9430700D56DE70C20404204
:101960007AE701A90422052000F046FA04220520A6
:10197000144900F009FABAE70520042201A900F091
:1019800003FA280068E7002066E70821380000F025
:10199000A1F9019B002B02D10D2040425CE70520FC
:1019A000042201A900F0F0F90D20404254E7012083
:1019B000404251E7052040424EE70E2040424BE7AF
:1019C000780500209C700010F0B54546DE4657466D
:1019D0004E46E0B589B005001400039104920593CA
:1019E000042800D934E10430030218009A4600F0BC
:1019F0009DF90F230340023B01000290032B00D905
:101A000029E1002C00D129E1964B9B465A466B00F8
:101A10000193D35A002B5CD10333534498460127DA
:101A2000914BAF4099464346B8461F00280000F04E
:101A30004BFA04000600380000F078F9002800D1C5
:101A4000B5E04B4642461B881A4200D176E0B846C4
:101A5000002C00D1AEE00720029B1840032800D1E3
:101A600082E0042800D1A7E002283CD15B46019A1D
:101A70009B5A002B67D1574606AC2100280008224C
:101A8000013700F005FB4021380000F023F9380051
:101A900000F04CF90028FAD1059A23781370637886
:101AA0005370A3789370E378D3702279637912022C
:101AB0009B18129A1380A279E37912029B185A4656
:101AC00001999BB25352694A9046802241464A5539
:101AD0003DE007200840032835D0042833D00228F1
:101AE00031D0002400263100280000F091FB5B4635
:101AF000019A57469E525D4B013798464021380067
:101B000000F0E8F8380000F011F90028FAD15B463F
:101B1000019A9B5A9E1B5B46B6B29E52002E03D082
:101B20004346585D0123184343465855200009B0E9
:101B30003CBC90469946A246AB46F0BD002C00D175
:101B400074E7B84687E7494A574690460137049AF2
:101B5000161C9A4200D91E1CB6B232002800039906
:101B600000F096FA3400C9E75B46019A9B5A002BB5
:101B7000E9D1574606AC210028000622013700F0C3
:101B800087FA4021380000F0A5F8380000F0CEF8C0
:101B90000028FAD1059A2378137063785370A378DC
:101BA0009370E378D37022796379120286E7042474
:101BB0006442BBE70024B9E75B46019A9B5A002BBD
:101BC000C1D106AC21002800022200F061FA534680
:101BD0005F1C4021380000F07DF8380000F0A6F8C6
:101BE0000028FAD162782378023A1B029B185A46E1
:101BF00001999BB253521E4A934200D863E71021C9
:101C0000380000F067F8380000F090F80028FAD1AA
:101C100004005046FF21023000F05CF80123AB4085
:101C20004A46DB43494612881BB21A400A801149D2
:101C30000A8813400B805B46019A9C520B4B5C5503
:101C40004446200000F072F80028FAD10A4C6DE7F3
:101C5000012464426AE70524644267E70E24644273
:101C600064E7C0465C050020780500205805002088
:101C7000EA0500007A05002017FCFFFF30B5144C80
:101C800083B0E368984763699847636A002B0BD079
:101C9000A36A002B08D069460F228A8035328A71E8
:101CA00001A80321984708E00F20236A98470020E5
:101CB000236A98474420236A9847E36998470500B8
:101CC000A369984723699847280003B030BDC046F0
:101CD0008C02002070B5144C82B0E36805000E0041
:101CE000984763699847A36A002B0ED0F02201A899
:101CF00002702A0A042142708570C6709847A36951
:101D000098472369984702B070BD236AF02098472E
:101D1000280A236AC0B29847236AE8B2984730007D
:101D2000236A9847EBE7C0468C02002030B5154C7B
:101D300083B0E3680500984763699847636A002B9E
:101D40000BD0A36A002B08D00F2201A802702A0A28
:101D5000032142708570984709E00F20236A984755
:101D6000280A236AC0B29847236AE8B29847E36911
:101D700098470500A369984723699847280003B04E
:101D800030BDC0468C020020F0B51A4E83B0F36817
:101D9000170004000D00984773699847B26A002A3B
:101DA00012D0F02301A80370A3B21B0A43700321D1
:101DB0008470904739002800B36A9847B369984700
:101DC0003369984703B0F0BDF020336A9847A0B25A
:101DD000336A000A9847E0B2336A98470024002F1C
:101DE000ECD001342878336AA4B298470135A74271
:101DF000F7D1E3E78C020020F0B5204E83B0F36802
:101E000004000D001700984773699847736A002B08
:101E100015D0B26A002A12D00F2301A80370A3B212
:101E20001B0A437003218470904739002800736AAD
:101E30009847B36998473369984703B0F0BD0F20BE
:101E4000336A9847A0B2336A000A9847E0B2336A0F
:101E500098470024002FECD0F36998470134A4B2CE
:101E600028700135A742E4D0F36998470134A4B241
:101E700028700135A742EFD1DBE7C0468C02002075
:101E8000F8B5061D36023700002520372136380008
:101E9000FFF74CFF000284B23000FFF747FF241821
:101EA000A4B2002C03D1002DF1D12800F8BD3800D8
:101EB000FFF73CFF000285B23000FFF737FF2D1817
:101EC000ADB2AC42E3D1F0E7F8B5061D36023700FB
:101ED0000025263727363800FFF728FF000284B296
:101EE0003000FFF723FF2418A4B2002C03D1002DEB
:101EF000F1D12800F8BD3800FFF718FF000285B2C5
:101F00003000FFF713FF2D18ADB2AC42E3D1F0E77C
:101F10002423F0B5DE46454657464E469C46E0B57E
:101F2000061D3602B444634687B004006046019241
:101F300005910393FFF7FAFE25239A46B244050064
:101F40005046FFF7F3FE2D022D18ADB21B2004956D
:101F5000FFF7ECFE63009846032342469340184087
:101F6000029380231041DB008340013B1D40AB46C0
:101F7000002C00D186E0454B80250026002799469D
:101F8000ED011B20FFF7D2FE03237F00BB4018406A
:101F90003841012383404A469B020136134076B202
:101FA0003700ED18B442ECDCADB2019B1B205B4462
:101FB0001F00FFF7BBFE01264246029B5D4418400E
:101FC0001041320082409302304AADB29146134034
:101FD0009F423BDD1B20FFF7A9FE029B0340180038
:101FE0004346184186405B46B602B6B2F11A8BB240
:101FF0009B461A00059B280098461900FFF7C4FE6F
:102000004346BF1B5B449B46BBB29846002C36D070
:10201000802700250026FF011B20FFF787FE0323F2
:102020007600B34018403041012383404A469B026A
:10203000013513406DB22E00FF18AC42ECDC3804C1
:10204000000C42465946FFF79FFE04E02800019A23
:102050000599FFF799FE019A049B944663449CB24C
:102060000398210AFFF736FE5046E1B2FFF732FE31
:1020700007B03CBC90469946A246AB46F0BD8020D6
:10208000C001DEE78025ED018FE7C04600FCFF03BD
:102090002823F0B5DE46454657464E469C46E0B5F9
:1020A000061D3602B444634687B0040060460192C0
:1020B00005910393FFF73AFE29239A46B24405009F
:1020C0005046FFF733FE2D022D18ADB21A200495AD
:1020D000FFF72CFE630098460323424693401840C6
:1020E000029380231041DB008340013B1D40AB463F
:1020F000002C00D186E0454BC025002600279946DC
:10210000ED011A20FFF712FE03237F00BB401840A9
:102110003841012383404A469B020136134076B280
:102120003700ED18B442ECDCADB2019B1A205B44E1
:102130001F00FFF7FBFD01264246029B5D4418404D
:102140001041320082409302304AADB291461340B2
:102150009F423BDD1A20FFF7E9FD029B0340180078
:102160004346184186405B46B602B6B2F11A8BB2BE
:102170009B461A00059B280098461900FFF73CFE75
:102180004346BF1B5B449B46BBB29846002C36D0EF
:10219000C02700250026FF011A20FFF7C7FD0323F3
:1021A0007600B34018403041012383404A469B02E9
:1021B000013513406DB22E00FF18AC42ECDC380440
:1021C000000C42465946FFF717FE04E02800019A2A
:1021D0000599FFF711FE019A049B944663449CB253
:1021E0000398210AFFF776FD5046E1B2FFF772FD32
:1021F00007B03CBC90469946A246AB46F0BDC02015
:10220000C001DEE7C025ED018FE7C04600FCFF03FB
:10221000F8B5061D36023700283738000C00FFF7E6
:1022200085FD293605003000FFF780FD2D022418BA
:102230002D19ADB23800290AFFF74CFD3000E9B284
:10224000FFF748FDF8BDC04610B50C0001003F2067
:10225000FFF740FD4020210AFFF73CFD4120E1B29D
:10226000FFF738FD01214420FFF734FDFFF706FD9D
:102270000028FBD110BDC046010010B53F20FFF77C
:1022800029FD02214420FFF725FDFFF7F7FC002878
:10229000FBD14230FFF74AFD04004320FFF746FD23
:1022A0002402204380B210BD7047C046D023802254
:1022B0001B0692029A617047D02380221B0692026D
:1022C0005A6170470078C0B27047C04601707047CD
:1022D00000B583B06A460023FF21D371044801335F
:1022E000073204F06DFC6B46D87903B000BDC046E0
:1022F00000C0034000B583B06B460122D91D0870B1
:10230000024804F085FC03B000BDC04600C0034095
:102310007047C046002805D0002903D0034B9961BF
:102320005861704702490348F8E7C0468C02002014
:10233000B9220010AD220010074B1A88920500D474
:10234000FEE7002804D0002902D01962D861704746
:1023500002490348F9E7C0468C020020F52200102C
:10236000D122001070B50C00052800D97DE0404B4B
:1023700080001B589F4619200978FFF7ABFC618845
:102380001720090AFFF7A6FC1820A178FFF7A2FC86
:10239000002070BD1920FFF7C9FC20701720FFF73F
:1023A000C5FC05001820FFF7C1FC2D022D18658023
:1023B0000020EEE706220920FFF7E6FC21000422B8
:1023C00001200E31FFF7E0FC2100042205200A3134
:1023D000FFF7DAFC04220F20A11DFFF7D5FCA27C39
:1023E000244B00201A70E27C5A70227D9A70627D24
:1023F000DA70A27D204B1A70CBE706220920FFF786
:10240000FBFC2100042201200E31FFF7F5FC210026
:10241000042205200A31FFF7EFFC04220F20A11D42
:10242000FFF7EAFC134B00201A78A2745A78E27482
:102430009A782275DB7863750F4B1B78A375A8E734
:102440000C78382322009A430FD10020FFF76EFC4E
:102450000443E1B20020FFF73DFC002099E7002093
:10246000FFF764FC2070002093E70120404290E7D2
:10247000A4700010B00400207C05002000B587B0D7
:1024800004A906220920FFF7B7FC01A904220120B4
:10249000FFF7B2FC02A904220520FFF7ADFC0422DD
:1024A00003A90F20FFF7A8FC80210020FFF712FCF2
:1024B0000020FFF73BFC04A906220920FFF764FC7B
:1024C00001A904220120FFF75FFC02A904220520D4
:1024D000FFF75AFC04220F2003A9FFF755FC07B0B1
:1024E00000BDC046F8B5CE46474680B505000E0093
:1024F000FFF7C4FF002D3AD00022AA562B78082AF5
:1025000000DD79E06A789B18DAB25BB2082B00DD57
:1025100072E0AB78D318DAB25BB2082B6CDCEB78E4
:10252000D21852B2082A67DC032300279846E95DD7
:1025300001295DD0002300295AD00A0001335BB283
:102540001A41012AF9D17A00934091465CB21B20CE
:10255000FFF7ECFB4A464346010093409943214371
:102560001B20C9B20137FFF7B5FB042FDFD1002EC6
:1025700039D00022B2563378082A3DDC72789B1895
:10258000DAB25BB2082B37DCB378D318DAB25BB2BD
:10259000082B31DCF378D21852B2082A2CDC032342
:1025A00000279846F15D012929D0EA5D0023002A21
:1025B00025D00A0001335BB21A41012AF9D17A0011
:1025C000934091465CB21A20FFF7B0FB4A4643465F
:1025D00001009340994321431A20C9B20137FFF704
:1025E00079FB042FDED100200CBC90469946F8BD43
:1025F0007B0099460024AAE701204042F4E77B00D3
:1026000099460024DFE7C04610B50C000F2810D80B
:10261000614B80001B589F461520FFF787FB030086
:102620000F20EF22184000021340C0182080002025
:1026300010BD01204042FBE7FFF720FFF7E700292C
:1026400000D19AE004312000FFF74CFFF0E7E023CF
:10265000098815201940FFF73DFB0020E8E710220C
:102660000B8809781B0591431B0F16201943FFF7B0
:1026700031FB0020DCE71620CFE7484B00209A789A
:102680000A70DA784A701A798A705A79CA709A7917
:102690000A71DB794B7100238B71C9E70020FFF7CA
:1026A000EBFD3F49014389B20020FFF7CDFD00203B
:1026B000FFF7E2FD0304FAD4B9E70020FFF7DCFDE1
:1026C0006378012B54D0E378012B5FD0354901406A
:1026D000A378012B56D0344801400020FFF7B4FD09
:1026E0000020A5E70020FFF7C7FD8022012301009D
:1026F000520123701140104226D1020A1A40E270A2
:1027000080226170010092011140104237D00020F8
:10271000A3708DE70C780020FFF7AEFD012C16D0DA
:10272000224901400020FFF78FFD0020FFF7A4FDA4
:102730000005C01740B27BE73C20FFF7F7FA012302
:1027400003402370002073E70020637070E780214E
:102750000901014389B20020FFF776FD0020FFF751
:102760008BFD0123C00A58402040404240B25FE741
:1027700080214901014389B2AFE7002163E70020CE
:10278000A17055E780239B011943A6E70849014042
:102790008020400001439BE7BC7000108C020020A9
:1027A0000080FFFFFFEE0000FFDFFFFFFFF70000EC
:1027B000FFEF000010B50400010006220920FFF71A
:1027C0001BFB2100042201200E31FFF715FB210025
:1027D000042205200A31FFF70FFB04220F20A11D60
:1027E000FFF70AFB064B1A78A2745A78E2749A78BB
:1027F0002275DB786375034B1B78A37510BDC0464B
:10280000B00400207C050020094A83009446402241
:10281000634410B51C68C0006240C024144080228C
:10282000520113431C60034B9C466044416010BD41
:1028300004C0014000400140084B80009C466044B9
:10284000002905D080239B01184340230360704773
:10285000C0239B01184340230360F8E704C00140F4
:102860000123D0228340120693629361094A8300B8
:102870009446402263441968C0004A40C021114078
:102880008022520113431960034B9C460523604488
:102890004360704704C0014000400140F8B5EFF3C9
:1028A000108772B60E4E3368002BFCD0BFF35F8FDB
:1028B000CB08C4180725A446C45C01230D40AB40D7
:1028C00018002040234208D1624623431370BFF30F
:1028D0005F8F306087F31088F8BD100001F084F836
:1028E0002C0100D0024B18688007C00F7047C0460B
:1028F00000C006400021044B044ABFF35F8F02C3AF
:102900009342FAD17047C046000100D0800100D048
:10291000044A1078431CDBB2172B00D91023137024
:102920007047C046B8020020F8B5040006200D002C
:1029300001F0D6F9002845D02B4B2C49E3185A4218
:1029400053418022D20394465B421340284A634499
:102950001360284A136018008A689043FBD1224B09
:102960008021E3185A425341234A5B004900062064
:10297000995201F0B5F92900C00002F04BFFC309DC
:1029800021D140270122260080256262A362002314
:102990002C36AD0135432B60062001F0A1F939003A
:1029A000800002F037FF6023E26A53406E221A4033
:1029B00080235B0133431A60104B236310232B6089
:1029C0000D3BA364F8BD0E4A934203D900230D4F7B
:1029D0000D4AD8E77F221040013040089F011A00BD
:1029E0003F180300CFE7C0460080FCBF00C0004096
:1029F00000E0004000F00040640B002001030000F4
:102A0000FEFF0000C0FF3F00FFFF000083680B488F
:102A100010B5844661446244090112019A1859189C
:102A200054684B6801209C4201D802D00020C0B2FB
:102A300010BD12680B689A42F9D8F7E7FFFFFF0F45
:102A400010B508000B690C009847002802D02068D8
:102A5000616810BDE06000210020FAE70A4B1968A8
:102A6000EFF3108072B60A68002AFCD0BFF35F8FC4
:102A70001B68BFF35F8F00221A6080F3108840BF8D
:102A8000002000217047C04654050020F8B5574685
:102A90004E464546DE46E0B5434D81468A466A6865
:102AA000EFF3108872B61368002BFCD0BFF35F8F72
:102AB0002E68B47B002C3ED0670033683F19033F7B
:102AC000DA195378B373002B00D1F373002393709A
:102AD00053701370A968354A8C464946A2181201F2
:102AE00062441160514651603149D360916032684F
:102AF000D219937053701370737B9B46002B35D0A3
:102B000022001900B068736898473268002820D006
:102B10005B4658465B005B44D719033BB870D1183D
:102B2000D35C002B00D07B705B460C7073735C45EC
:102B30001DD0002626E06B68BFF35F8F1C6088F312
:102B40001088012040423CBC90469946A246AB46C4
:102B5000F8BD5B465B005B44033BD3189C70D11906
:102B6000D25D002A00D05A705B460B7074734A46DF
:102B70005346287D00F016FC061EDAD02100286896
:102B800000F07AFEEB686A681B19013B1B78BFF303
:102B90005F8F0021116088F310880020002ED2D1B1
:102BA00018022043CFE7C046BC020020FFFFFF0F02
:102BB0005D2A0010F8B5574645464E46DE46E0B55C
:102BC00099460CAB19780DAB1B78050090469A46D8
:102BD0000768002912D1BE7B002E45D074003B68E7
:102BE000A419033C1B195A783100BA73002A00D18A
:102BF000FA7300229A705A701A7003E00E004C00AB
:102C00006418033C2C4B00229C46AB6861449C46F4
:102C10004346090161440B604B464B600A9B8B6045
:102C20000B9BCB603B681B199A705A701A707B7BA8
:102C30009B46002B2CD032005946B8687B689847D9
:102C40003A68002817D05B4658465B005B4414196D
:102C5000033BA070D118D35C002B00D063705B469F
:102C60000E707B73B34514D030003CBC904699463F
:102C7000A246AB46F8BD5B465B005B44033BD31802
:102C80009E701119125D002A00D05A705B460B70BD
:102C90007E7342464B46287D00F084FB041E06D01E
:102CA0005346002B03D13100286800F0E5FD0E9B50
:102CB000002BD9D01C70D7E7FFFFFF0FF0B5DE4621
:102CC0004E46574645460023E0B58DB00A936B4B00
:102CD0008200D3580B90994600239B464B4607939E
:102CE00000F000FB079C06000F006268EFF3108500
:102CF00072B61368002BFCD022000794BFF35F8FDD
:102D00002468637B9946002B67D092685C4B9046A1
:102D10004B441B01984443461A685B681000190035
:102D2000801BB94100295FDD0B9800F03BFB0023BD
:102D30000026984600279A46079C6368BFF35F8F7A
:102D40005A461A6085F310885346002B08D1002894
:102D5000C6D10DB03CBC90469946A246AB46F0BDEC
:102D60000A9B414618024B461843D04708900991E8
:102D70006268EFF3108572B61368002BFCD00794DD
:102D8000BFF35F8F0899099A002A48DB114303D0EB
:102D9000079B1B69002B5DD1079B1B68DA7B002A10
:102DA00007D051008A1819688C4649466244033A94
:102DB00051704A46DA734B46079A013BD168CA5CA8
:102DC0000132CA545B46079A13615368BFF35F8FA1
:102DD0005A461A6085F3108882E700230026984639
:102DE00000279A460020A7E7002901D100289BD19F
:102DF0000021200000F0A2FC43461E685F689B682B
:102E0000079A9A464346DB689846D3684B44013B91
:102E10001B780A931B020343136100208CE723698C
:102E2000002BB9D033003C005B1A94411A002300F8
:102E3000A74219D89F421BD0594604910121039102
:102E40004946029141460191514607980091FFF78A
:102E5000B1FEB7E700F046FA089A099B06000F009A
:102E600092197B419942E5D901225242D317E3E7F7
:102E70009642E1D901225242D317DDE740050020F6
:102E8000FFFFFF0F10B5124C6368002B04D00A211E
:102E9000104800F019FB10BD23000F4A10212068D4
:102EA00000F06AFB032000F011FA032000F0ECFAB6
:102EB00003200A4900F030FAFFF72AFD084B9C4630
:102EC000032360442375074B80006060DC60DEE70D
:102ED000BC020020540500200D2A0010BD2C00105B
:102EE000400000344005002000487047BC0200202C
:102EF000F0B54E464546DE465746E0B583B00E99DE
:102F0000060088461100194300D1F3E0D8170700E6
:102F100057403C0007005F4001003D00241A8D41EE
:102F200041460C980A600D9A4B604A618E600861B8
:102F300000F0D8F902000B00A4185D412000290020
:102F400000900191AB4200D9E3E000D1DDE0002325
:102F5000C3461F00B04643465B68EFF3108972B664
:102F60001A68002AFCD0BFF35F8F43461D68AC7B14
:102F7000002C5FD066002B683619033E9B195A78E7
:102F8000AA73002A00D1EA73002042469870587054
:102F900018709268644B94460099019AE3181B01DB
:102FA000634419605A60614A9A605A46DA602B6835
:102FB0009B199870587018706B7B9A46002B00D143
:102FC00088E022001900A8686B6898472A680028E2
:102FD00000D173E0534650465B0053449619033BBF
:102FE000B070D118D35C002B00D08CE053460C702D
:102FF0006B73544500D16EE043464246DB6852682D
:103000001B19013B1B78BFF35F8F0021116089F30F
:103010001088002F1AD11B021C430123D8469A4660
:1030200043465046DC6003B03CBC90469946A246FD
:10303000AB46F0BDD8465B68BFF35F8F1C6089F379
:103040001088002301249A466442E9E75846036940
:1030500098478146002803D1BA46D8460024DFE7C6
:103060005B461C685D6823002B4358D0002D0FDAA7
:10307000009A019B10001900001BA94104000D00DB
:103080008B4210D8AB4212D04F460094019562E7B4
:1030900000F028F906000F00A4197D41A94202D8CA
:1030A000F2D1A042F0D901246442E517ECE7009B7D
:1030B000A342E9D901246442E517E5E753465B00E2
:1030C0005344033BD3189C709119925D002A16D18A
:1030D00053460B706C734346187D009A019B00F0B9
:1030E00061F9071E00D187E743462100186800F008
:1030F000C3FB81E7012400250122002310E75A7059
:1031000053460B70E6E7737070E700998A4200D867
:103110001DE701235B42DC170093019417E7D846B3
:10312000CA4600247CE7C046FFFFFF0F412A00107B
:10313000F0B504000D0006267642F717C64636198C
:103140006F4100B58F4213D810D000F0CBF8320099
:103150003B00121A8B41002B14DC002B37D02900C6
:10316000200000F0C9F804BC9046F0BD8642ECD9BE
:103170000026002700F0B6F832003B00121A8B41FF
:10318000002BEADD30003900FFF780FC0028E6DB89
:1031900000239846BC460F4A0F4F7B6A9C4504D8D3
:1031A000B96A8E42DBD99C45D9D11168EFF3108002
:1031B00072B60B68002BFCD0BFF35F8F1368BFF3B0
:1031C0005F8F4146196080F3108820BFE5E7002A31
:1031D000C5D0D7E7540500200040054070B5060073
:1031E00000F080F8FA2204000D00002330000021D6
:1031F000920003F04BF9001969418D4205D802D0C5
:10320000FFF796FF70BD8442FAD901204042C117F2
:10321000F6E7C046F0B5D6464F464646C0B5EFF392
:1032200005833F22134018001038EFF3108C72B65C
:10323000204D2A68002AFCD0BFF35F8F01221100C5
:1032400081401D4C884661631C4917000E788A46F0
:103250003100C1400F400A4215D019498200646A0A
:1032600051588C4219D3174BD25843469E4353466C
:103270001E70BFF35F8F00232B608CF31088002A31
:1032800006D0904704E0BFF35F8F2F608CF3108867
:103290001CBC90469946A246F0BD0B4A9B00904646
:1032A00043441A681A60BFF35F8F00232B608CF3CE
:1032B0001088EDE7280100D000400540810500207E
:1032C00064050020B4040020D03F054010B5010083
:1032D000024A0348FFF7E2FA10BDC046FC70001036
:1032E0007D050020034B596A0A00986A596A8A4290
:1032F000FAD1704700400540064A536A9942FCD80B
:1033000007D1044B02E05A6A914202D19A6A824282
:10331000F9D370470040054070B504000D00EFF38D
:10332000108672B61A4A1368002BFCD0BFF35F8F69
:10333000002D1BD0200000F0EBFC164981420AD082
:10334000200000F0EDFC0121200000F0CFFC012363
:10335000A340114A1360114BA400E550BFF35F8FE7
:1033600000220B4B1A6086F3108870BD0B4BA20035
:10337000D5500122A2400A4920000B7893430B70DC
:10338000044900F0F7FC0021200000F0AFFCE5E765
:10339000280100D01532001038600540B404002028
:1033A00081050020F0B54F46D6464646C0B5070019
:1033B000304C616A0D00A66A616AA942FAD18B425B
:1033C00008D805D001201CBC90469946A246F0BD05
:1033D000B242F7D9EFF3108972B627480168002985
:1033E000FCD0BFF35F8F01252449BD408C4609788E
:1033F000204C0E002E438846F1B28A466146504664
:103400000870391D1E48890065630A51B9000B50C8
:10341000216A0020294219D0616A0800A66A616AFF
:103420008142FAD18B4219D801D1B24216D8C24595
:103430001DD0104B1F201D625D6301230740BB4060
:10344000104A1E381360634642461A70BFF35F8FFE
:103450000022094B1A6089F31088B4E70020BFF3FB
:103460005F8F0022044B1A6089F31088ABE70120BC
:10347000ECE7C04600400540280100D0810500204F
:103480006405002080E200E010B5EFF3108472B60E
:103490000A490B68002BFCD0BFF35F8F01238340E8
:1034A000074A0848136202789A430270BFF35F8F9D
:1034B00000230B6084F3108810BDC046280100D0A3
:1034C0000040054081050020024B9C466144890074
:1034D000016070474000003410B50400FFF718FA8F
:1034E00001002000FFF7F0FFFF232371BFF35F8F80
:1034F00010BDC04610B50400FFF70AFA0100200015
:10350000FFF7E2FFFF23A380BFF35F8F10BDC0462C
:1035100070B505000E001400002924D0002A24D024
:1035200080686B689847296800280ED063001B19D3
:103530007200033B9219CB18033A9E7088188A5C7C
:10354000002A14D1047030000EE073009B19620051
:10355000033B1219CB18033A9C7088188A5C002A26
:1035600000D05A700670200070BD0800FCE75A7049
:1035700004703000F8E7C04630B583600023CCB259
:1035800043730133047342608373C4730D00006896
:10359000012C06D9421C0133DBB2137003329C426A
:1035A000F9D1FF2129404B00591800234018033856
:1035B000437030BDF8B5CE46474606000C0080B5D6
:1035C000002907D04D0003686D18033D5A1957783C
:1035D000002F04D120000CBC90469946F8BD79001C
:1035E000C9190339884643445978894600215970DE
:1035F000517073683A00210080689847336800284A
:1036000014D042469A18947059195B5D002B00D073
:1036100053700F70270049463000FFF7CBFF390089
:1036200002003000FFF774FF0400D3E74246414632
:103630005D19AF709A185B5C002B00D06B70147032
:10364000E9E7C046F0B557464546DE464E46E0B58A
:103650000D006B0001685B19DF1E0400C85D83B0BC
:103660000192CA1900284CD043001B18033BCB1809
:103670005E78B446002E16D1019E002E3ED0E67B29
:10368000002E04D073009B19CB18033B5D70E573CB
:1036900000282FD10023537003B03CBC90469946BC
:1036A000A246AB46F0BD72006244033A89184A78DC
:1036B000904600224A7091465A7001003200200064
:1036C000FFF726FF43468246002B07D05B002168A8
:1036D0004344033BCB185A78002A16D14246514640
:1036E0002000FFF715FF2168019BCA19002BC6D1E6
:1036F0000028CFD043001B18033BCB180021997042
:10370000C8E7019B002BBAD1C4E7500080180338EA
:10371000091848788346484648705870414620004A
:10372000FFF7F6FE594680462000FFF743FF41466B
:1037300002002000FFF7ECFE8046CFE7F0B54E46D2
:103740004546DE465746E0B5467B040075000068F6
:10375000AD19033D83B00191415D421900294ED05E
:103760004B005B18033BC3185F78BC46002F18D191
:10377000019D002D40D0E57B002D04D06B005B192E
:10378000C318033B5E70E673002931D1002330007B
:103790005370617303B03CBC90469946A246AB4659
:1037A000F0BD7A006244033A8018427893460022C2
:1037B000427091465A7020003A00FFF7A9FE5B461E
:1037C0008046002B07D05B0021685B44033BCB188D
:1037D0005A78002A17D15A4641462000FFF798FE32
:1037E000019B010020684219002BC4D10029CDD0D3
:1037F0004B005B18033BC31800209870C6E7019B81
:10380000002BB8D1C2E75000801803380918487857
:10381000824648464870587059462000FFF778FEA7
:1038200053468346002B07D05B0021685344033B7B
:10383000CB185A78002A06D1594652462000FFF785
:1038400067FE8346C7E750008018033809184846CA
:103850004F784870587051462000FFF759FE3900E4
:1038600081462000FFF7A6FE494602002000FFF730
:103870004FFE8246E0E7C04670B5040000292CD018
:10388000437B8B422ED00568480040180338281827
:103890008278002A21D053009B18033BEA5CEE1883
:1038A0008A4202D11BE0002A08D053009B18033B38
:1038B000EB185A788A42F6D142785A7000230122D6
:1038C000837043702000FFF7BDFE617B0200200083
:1038D000FFF71EFE6073012000E0002070BD4378FA
:1038E0003370EBE701221900FFF7ACFE6073012093
:1038F000F4E7C0462C4B2D4A70B51A602C4A2D4B6C
:103900002D491A6010008B689843FBD12B4C2C4B2F
:103910009C4209D2013B1D1BAD080135AD002D199C
:1039200008CC9847AC42FBD100F07CF8254A214BEB
:103930001A60214A9368DB018033FBD14022224B7D
:10394000224C234D9A675A671A67DA66AC4208D24E
:1039500023682000002B21D00834FFF7CBFDAC42B8
:10396000F6D31C4C1C4DA168C022280002F0FEFDBD
:10397000A560FEF7BFFF00F035FBFFF783FA174C99
:10398000174B9C4209D2013B1D1BAD080135AD0010
:103990002D1908CC9847A542FBD170BD0834FFF71C
:1039A0009BFDAC42D4D3DCE700E00040BFCDFBFE82
:1039B000FE7F3C0000F0004000C000406C0300208F
:1039C0007C030020FFFFFF0100F0014064030020A2
:1039D0006C03002000ED00E0000000207C030020CC
:1039E0008003002000BEFDE70FB400B5084883B097
:1039F00002F018FF049B002B07D005A918000191C5
:103A000001F092FE034802F00DFF00BEFDE7C04644
:103A1000207100103071001010B50148FFF7E4FF6D
:103A20003471001030B50C2083B000F03FFBFEF77E
:103A300059FF00280ED0944B944A1A605A609A603D
:103A4000DA601A615A619A61DA611A62904A5A62BE
:103A500003B030BD8F4CA06700F030FB01228E4BCD
:103A60001A60636C012BFCD103228C4B1A60894ACB
:103A7000936B012BFCD102240121894A894805332B
:103A8000009400F0C1FA0523874A01218748009479
:103A900000F0BAFA864B5A68FF2A02D880225200F8
:103AA0005A608022784C7D4B21691201804D1A604A
:103AB000002905D0606901F0ADFE01300138FDD16B
:103AC000E0217B4B02201A681140802252012A43D8
:103AD00011601968484003210140116004219A686F
:103AE0001142FCD08022802192012A4309011160F9
:103AF000802252005A606F4B23616F4B5968FF2937
:103B000000D85A6003226C48634B01211A600200FE
:103B100093681942FCD0E02513681D4080235B01A7
:103B200003431D6012684A400321114019600221BD
:103B3000614A93681942FCD0802380219B01034392
:103B40000901196080215D4B4900516063615C4B44
:103B50005A68FF2A00D8596080225A4BE169120145
:103B6000574D1A60002905D0606901F053FE0130FD
:103B70000138FDD1E02252490B681A4080235B01D5
:103B80002B431A60802380229B012B4312011A6071
:103B900080223E4B52004A60E3614B4B5968FF293B
:103BA00000D85A608022494B216A1201464D1A60A2
:103BB000002905D0606901F02DFE01300138FDD1EA
:103BC000E02241490B681A4080235B012B431A60B5
:103BD000802380229B012B4312011A6080238022C4
:103BE0005B004B60294BD2022362394B59689142EA
:103BF00000D25A608022374B616A1201344D1A603C
:103C0000002905D0606901F005FE01300138FDD1C1
:103C1000E0222F490B681A4080235B012B431A6076
:103C2000802380229B012B4312011A608023DB0238
:103C30004B60174B6362284B5A68FF2A02D88022D8
:103C400052005A608022254BA1691201224D1A6050
:103C5000002905D0606901F0DDFD01300138FDD19A
:103C6000E0221D490B681A4080235B012B431A6038
:103C7000802380229B012B4312011A6080235B006A
:103C80004B600E4BA361E3E6C4040020006CDC0231
:103C90001BB70000008000403CB0004030B0004046
:103CA000002F68590080024000389C1C00C0024070
:103CB00030800040001BB7003C8000404059730733
:103CC0005480004054B000406080004060B000402C
:103CD0006C8000406CB000404880004048B000401C
:103CE000014B8000C0587047C4040020012383406A
:103CF000002904D0034A1360034A13607047034A43
:103D00001360FBE780E200E000E100E080E100E01A
:103D1000024B10309B688000C058704700ED00E0F7
:103D200070B50D00EFF3108672B60F4A1368002BC2
:103D3000FCD0BFF35F8F0D4B10309B6884001B5984
:103D40000B4A934203D09D4201D0FFF765FE074B1B
:103D50009B681D51BFF35F8FBFF35F8F0022024B43
:103D60001A6086F3108870BD240100D000ED00E0D9
:103D7000CD010010F0B5DE4657464E464546E0B54B
:103D80000C0083B0EFF3108A72B65B4A1368002B05
:103D9000FCD0BFF35F8F1022914681444A46574BB7
:103DA00096009B689D59564B98469D4205D0A5426A
:103DB00016D0544FEB1B2F2B14D9504B9B689D51A1
:103DC000BFF35F8FBFF35F8F00224B4B1A608AF304
:103DD000108803B03CBC90469946A246AB46F0BD65
:103DE0001D00EAE7012383409B465A46464B1B6869
:103DF0001A4000925A46454B1A60BFF35F8FFCF79A
:103E000032FA0190002803D0814501D0FFF704FE6B
:103E100001232A009A4313003D49DB1B5B415943B0
:103E2000090D93689C4208D15BE043001B189B007E
:103E3000FB189868A04211D01A00062010560028DE
:103E4000F3DA009B002B05D05A46324B1A602E4BFA
:103E50001A60B2E75A462D4B1A60AEE70620185694
:103E6000002822DB4200111889007C188846A168CE
:103E70009960E179D971062161569971A1797F29FB
:103E80001FD8A488F91A6405241544440919E024AC
:103E90000905490D24022143998012181E4B9200F6
:103EA000BF181A781870BA71CBE7019800280BD1A7
:103EB000FF30907119489080174A107811709871EE
:103EC000BFE7BD210902E7E7154A1649D21A083AA9
:103ED0005002400D01439980134952080A43DA8089
:103EE000AFE70620105613000028BBDA019A002A1B
:103EF000EAD14546E0E7C046240100D000ED00E0ED
:103F0000CD010010E402002000E100E080E100E0CB
:103F1000AAAA000080E200E08005002000BDFFFFAB
:103F20001E03002000F0FFFF00F8FFFFF8B5012599
:103F300004000543FCF797F90300EFF3108672B60F
:103F400021490A68002AFCD0BFF35F8F1F4A200076
:103F50001F49801A40414143090D1E489B00876854
:103F600049B2FF58AF421CD00623D3568B421CD017
:103F70001223D3568B4222D01E23D3568B4220D0FD
:103F80002A23D35603208B4210D0134B1A78197072
:103F9000A271BFF35F8F00220B4B1A6086F310886B
:103FA000F8BD82680D48D050EFE7002043001B1891
:103FB0009B00D218FF239371094B9380E5E7012002
:103FC000F4E70220F2E7C046240100D0E40200201A
:103FD000AAAA000000ED00E080050020CD0100103D
:103FE00000BDFFFF054B064A1360064A136053608D
:103FF0009360D360136153619361704780808080C8
:1040000000E400E004E400E0F8B504000C20170030
:104010001D000E0001F0FEFB4101091A8B01591A27
:10402000C90009188901380001F0F4FB069A2B0435
:10403000120313432268002A21DB184AA2185142B6
:104040004A41802149018C4652420A401449624447
:104050000A6014490A60144917008D68AF43FBD108
:10406000C021221D8901114321222660A0600A601F
:104070002268002AFCDAE36008230B60F8BD3F22C7
:1040800021680A40B242D8D1A2681205120D8242BC
:10409000D3D1E268002BD0D1F0E7C0460040FDBF8D
:1040A00000E0004000F0004000C000408023024AD1
:1040B0009B000343D362704700800540AA23064A51
:1040C0001B0113602F230549D360054B196053680A
:1040D000002BFCDA7047C0460040024000B0FA00F6
:1040E000006002407047C046F8B557464E46DE466F
:1040F0004546E0B51F000A9B05009B460D9B0E0040
:10410000914692469B0718D10B9B0C9A934214D26E
:1041100013000B9AB8469B1A4B444C460F000600FE
:104120001D0022004346013439002020B047AC4234
:10413000F7D1AA4635003E0047460B9B002B38D0EE
:104140009A441C00D04653461A1B5B46013C185D3E
:1041500031003B00A847002CF5D10D9B9B0721D5D2
:1041600043464A469C1A0C9BA3421BD93A009A46E6
:104170004F469146E2194B46310020200134A847B2
:104180005445F7D343460C99DB1B0133B946002253
:10419000994203D343464A1E4A44D21A43469046A4
:1041A0000133984440463CBC90469946A246AB46F3
:1041B000F8BDD046D1E7C046F0B54F464646D64694
:1041C000C0B584B098460EAB1B78129F99469446B2
:1041D0000D9C109B119EBA0725D4002E69D19C42DC
:1041E00000D3C2E001223A4092461F2C00D9BBE026
:1041F0000C9A551E302201E0202C03D001342A55A0
:10420000A342F9D85246002A0DD0B4420BD21F2C3B
:1042100062D80C9A551E302201E0202C5CD001346B
:104220002A55B442F9D1FA0635D57A055DD4002C69
:1042300057D10F9B102B00D17CE00F9B022B00D19C
:104240008DE030230C9A012413704B46002B27D0AD
:104250002D230C9A135501340C9B6246009303974F
:10426000434602960194FFF73FFF04B01CBC904602
:104270009946A246F0BDBB0663D4202CECD00C9B23
:104280001A19013478231370202CE5D030220C9BAE
:104290001B191A700134202CDED04B46002BD7D1CD
:1042A0007B0735D43B07D7D520230C9A135501340F
:1042B000D2E7012215003D40AA463A4220D04A46A4
:1042C000002A2AD10C323A4227D19C429DD21F2C7F
:1042D00000D88DE7202E19D92024FA06BCD57A05FE
:1042E00003D4A3421BD0A64219D00F9B102BC2D0DF
:1042F000022BC9D1202CAFD00C9B1B19013440E0FC
:104300009C4200D38FE71F2C00D871E720248AE756
:104310002B230C9A135501349EE7013ED5E7631E0B
:10432000012C00D185E70F9A102A20D0022A25D02F
:104330001C00ABE7BB060DD478230C9A0124137044
:10434000A4E7202C00D187E758220C9B1B191A7078
:10435000013499E758230C9A0124137096E70C9ABC
:1043600060330124137091E7202400265BE7023CB0
:10437000BA06E9D40C9A12191C0083E70C9A9246EB
:10438000534462221A707FE710B5002800D110BD97
:1043900002F0F6F9FBE7C0460B0010B5002802D08A
:1043A00049681B68984710BDF0B5DE46574645463C
:1043B0004E46E0B59BB09B46249B0A909846259BB1
:1043C0000B910C924046424619009A4601F0F3FCCC
:1043D000002800D0E8E00122404651467F4B52427F
:1043E00001F0E4FC002800D0DEE001224046514606
:1043F0007B4B524201F0C4FC002800D0D4E00022E4
:1044000000234046514601F0BBFC002800D0CAE121
:104410005346C14609938023289ADB001A400E9226
:10442000289A1A4201D1062326934C46099B23431E
:1044300000D0D9E0289B002600271B0500D4AEE160
:1044400000230D93269B19000D9B994200DCB0E1DF
:10445000C81A431E26938023289ADB001A430023A0
:10446000002528920D93279B0024AB4200D95C1BAA
:104470000223289A1A400E92289A134203D06B42C4
:104480006B415B421C400D9B002B07D048460999AD
:1044900032003B0001F013FC814609910022002309
:1044A0004046514601F06CFC002805D080200006F3
:1044B0008446099961440991289A4A4B0A9E1340FF
:1044C0004A460493269B0B990293099B03940092FE
:1044D000019330005B460C9A884600F0A1F9040075
:1044E000002D72D0289B220098061F23C0179843E6
:1044F00041465B466530B0470D9B671CDA179C1838
:10450000DB0F98466B1E99460025544001E0202D94
:1045100013D00AAA94461F23200063440A210135C0
:104520005E1901F077F93031317020000A2101F075
:1045300071F926000400092EE9D8052306934B469D
:104540000593002304930A33039343463A000A9EDB
:104550000B9F029312AB009339005B46300001952C
:10456000FFF72AFE0E9B0400002B2ED00C9B279AEF
:10457000C51AAA4229D93C008146984617004346ED
:1045800021005A1920205B460135B047AF42F6D8CA
:104590004C460C992798631A01330022984200D3A5
:1045A0000AE10134141910E0289B42460493279B2A
:1045B0000B990393269B0A9802935346009201930A
:1045C0005B460C9A00F02CF9040020001BB03CBCA8
:1045D00090469946A246AB46F0BDC046FFFFEF7F2E
:1045E000FFFFEFFFFFF7FFFF764B099D9C4668003A
:1045F000400D604401F0F2FB734A744B01F07DFB07
:10460000734A744B01F052FB2B03734A1B0B1A4382
:1046100006000F00714B110048460022099501F079
:104620003CFB6F4A6F4B01F068FB02000B0030004F
:10463000390001F03BFB01F0E9FB0D9001F0CEFBEE
:10464000694A6A4B04000D0001F057FB0022684BD9
:1046500001F02CFB01F0DAFB664A0600664B2000F5
:10466000290001F04AFB040030000D000F9601F014
:10467000B5FB624A624B01F040FB02000B002000D8
:10468000290001F00AFB02000B0006000F0001F0F8
:1046900034FB320004000D003B003000390001F013
:1046A00005FB002210901191564B2000290001F0CB
:1046B00006FB0022544B01F0F9FA02000B00200027
:1046C000290001F0FCFA0022504B01F0EFFA020041
:1046D0000B002000290001F0F2FA0D0080213200C9
:1046E0003B000400C905002001F0D7FA02000B00CE
:1046F0002000290001F0DAFA02000B00109811994D
:1047000001F0DDFA0022344B01F0D0FA404A0F9B51
:104710009446634400221B0501F0EFFA06000F00E7
:1047200002000B004846099901F02AFB00280AD034
:104730000D9B3000013B39000D930022324B01F0FC
:10474000BEFA06000F00C6250D99330063318D4275
:10475000AD4128996D420435090500D483E63B43F9
:1047600000D16FE6099C484621002A4A2A4B01F0F5
:1047700015FB002808D0002248462100274B01F0F5
:10478000FFFA002800D05DE6269B002B00D16AE6E8
:104790000E9B5A1E9341269AD31A269363E6002352
:1047A00004250D935FE680231B065344C1460993FD
:1047B00031E6002326934EE60A008446013A62441D
:1047C000121BEEE601FCFFFFFB799F501344D33F21
:1047D000B3C8608B288AC63F0000F03F0000F83F56
:1047E00061436F63A787D23F71A379094F930A4052
:1047F0000000E03F1655B5BBB16B0240EF39FAFE41
:10480000422EE63F00002C400000244000001840EB
:10481000FF0300002D431CEBE2361A3F80842E413B
:10482000F0B54E46DE4657464546E0B597B0994648
:10483000209E219F229B8346984607910C923B0025
:1048400032003000390001F0B6FA002800D0C1E192
:10485000012230003900CA4B524201F091FA00287F
:1048600000D0E0E0012230003900C64B524201F096
:104870009DFA002800D0B6E0002230003900C24B7B
:1048800001F094FA002800D098E0002230003900AE
:10489000BE4B01F075FA002800D08FE00022002303
:1048A0003000390001F06CFA002800D0B0E000239D
:1048B0000D93249B5B0501D40623984608AB9C46C8
:1048C0001722002430234146624404E0013413558A
:1048D0000139202C01D00929F8D888463000390048
:1048E00001F094FA4346DA00A94B05009B181A68B8
:1048F0005B680892099301F071FA02000B00300026
:10490000390001F0CAF9089A099B01F0F6F90A90FA
:104910000B9101F09FFA824601F05CFA02000B0055
:104920000A980B9901F0B9F900229A4B0A900B9161
:1049300001F03CFA002800D1C0E001239C46E2448B
:10494000504601F047FA02000B000898099901F05F
:104950001DFA002802D000239A4601354346002B59
:1049600069D008AB17269C4608956644554614E066
:1049700001235B4243440A2128009A4600F04AFF83
:10498000013430313719397028000A2100F042FF14
:10499000092D00D8D5E0D0460500202CE8D103230E
:1049A000249A1340012B00D100E10EAB9846249BC2
:1049B00001940393239B029343461EE0249B584695
:1049C0000493239B00960197039343460C9A02930A
:1049D00007994B46FFF7E8FC17B03CBC9046994658
:1049E000A246AB46F0BD249B5B070ED403226A4B64
:1049F00024990192039123990291009358464B46C2
:104A00000C9A0799FFF770FBE6E70422634BEFE788
:104A10003B0032000020002101F03FF90123060095
:104A20000F000D9345E7249B0393239B02930423DC
:104A300001935B4BE1E7280001F0D0F902000B0085
:104A40003000390001F029F9524B002206000F0016
:104A500001F096F90EAB984600280AD100223000EA
:104A600039004C4B01F0A2F9002802D1EB0700D528
:104A70000135202C32D008AA94461723280063441D
:104A80000A2101341E1900F09DFE303128003170DA
:104A90000A2100F097FE051EEBD10323249A134050
:104AA000012B00D191E01F2C00D980E70D9B002B3A
:104AB0003BD02D2342461355013478E700220A9853
:104AC0000B99344B01F05CF9002800D046E75346BF
:104AD000002B67D101239C46E2443FE70323249A3D
:104AE0001340012B00D062E7239B002B00D15EE72F
:104AF0000D9B002B03D1249A0C33134202D0239B2D
:104B0000013B2393239B9C42CDD208AB9C461722AA
:104B1000302362441F2C06D82399013413558C424C
:104B2000C1D0202CF8D1202441E7249B5B0721D45D
:104B3000249B1B0700D43AE7202342461355013437
:104B400035E75746089D202C37D0220030214046BB
:104B5000002F08D00132B154202A43D0D3431B196F
:104B60001B18002BF6D10EAB98462E234146541C41
:104B70008B547EE72B2342461355013417E7C0467A
:104B8000FFFFEFFFFFFFEF7F65CDCD4165CDCDC1CD
:104B9000387300100000E03F4071001044710010B5
:104BA00050710010DB0700D4D8E693E7239B002B5D
:104BB00000D1FAE60EAB98469AE70323249A1340F5
:104BC000012B00D0F1E60EAB9846239B002B00D1C1
:104BD00069E78DE7249B0393239B029303230193AF
:104BE000064B0AE70323249A20241340012B00D00C
:104BF000DBE6239B2024002BDCD1D6E64C71001091
:104C0000F0B5DE464E4657464546E0B59FB01C001F
:104C1000289B93460993CF4ACF4B894608901A6048
:104C2000002900D116E2002320789A46002800D1FE
:104C300018E226001D004C460AE02A006F1C5B4665
:104C4000089D2100A8473D000136307800287AD021
:104C50002528F2D110239A46083B9946043B9846F2
:104C6000023B00219C46721C107816000300203B7A
:104C7000DBB2102B03D8B94F9B00FB589F460300B3
:104C8000303B092B3CD900230A932A2800D171E03C
:104C9000002398462E2847D00300683BDBB2122B36
:104CA0001FD8AF4A9B00D3589F46012301321943B6
:104CB000DAE7634601321943D6E743460132194326
:104CC000D2E7534601321943CEE74B46013219432E
:104CD000CAE770786C2800D1BFE280235B001943DB
:104CE00001360300253BDBB2532BA6D89D4A9B001F
:104CF000D3589F4680235B00707819430136F0E754
:104D000000270300B800C01901364000C0183378EE
:104D100030381A00303A0700092AF3D90A901800EF
:104D2000002398462E28B7D180237078DB001943E2
:104D30000300303B721C092B00D895E12A2800D1D2
:104D4000A6E11600A8E7A146AA462C00D34503D841
:104D500001235B425B449A465B465246494600202B
:104D6000089DA84720001FB03CBC90469946A2462B
:104D7000AB46F0BD099B40CB0A96002E03DB507872
:104D80000993561C84E72838014370420A9009931E
:104D90005078561C7CE7782800D1D4E1582800D1FF
:104DA00068E26F2800D152E3622800D1D8E11023D5
:104DB0000A009A430B92692801D000F0A2FC0A2352
:104DC0000C934B0500D4D5E101230B9A9A430B9227
:104DD000692800D1CEE1642800D1CBE10B9A802371
:104DE00011009B0019408A461A4200D032E380230A
:104DF00011005B00194089461A4201D000F002FC04
:104E000013005B0600D510E30B9B1B0601D400F0DA
:104E10006EFC099B04CB1204120C92460993534674
:104E2000002B00D064E30B9A1033110099430B91CF
:104E3000520500D45CE3002399460B9B06930A9B22
:104E40000593434604930C9B03930023DEE27078A2
:104E5000682800D107E280230136194341E7802307
:104E60009B007078194301363BE7462800D174E176
:104E70000722099B0491073393430A9A190003926E
:104E8000424602920CC908980092019309912A00A7
:104E90005B462100FFF7C4FC01360500D5E6099BFF
:104EA0001A0008CA9146002B00D105E121221143C6
:104EB0008A460EA884461F216144099500220F27C7
:104EC000A4460D0002E0202A0CD00B003C001C4040
:104ED00020003730092C00D807380132A8541909AE
:104EE0000F2BF0D86446099DF0E08B0700D4D1E188
:104EF000099B2A0099466B1C98464B4601CB210022
:104F00009946089F5B46C0B2B8470A9B9C466544D9
:104F1000012B00D890E2B2465E464746A846089D5F
:104F20003A003300013721002020A8474745F7D138
:104F3000B3464B4656463D000993013685E62A00A6
:104F40006F1C5B46089D21002520A84701363D00C7
:104F50007BE6C046014C0010380500205871001057
:104F60009C710010E8710010099B04CB99464346E0
:104F70000992002B00D097E013789C46002B00D1BB
:104F8000B3E302235B425A1C099B924618000A9F16
:104F90000B92504402E0834200D169E15A78013318
:104FA000002AF8D1099A0A979B1A0B9380230A00CA
:104FB000DB001A400C92194204D00B9B434501D9E7
:104FC00043460B9302231A000A400D920B4200D174
:104FD00084E16046002823D00C9B002B00D124E103
:104FE000A844C246099B57465B1B9846089BB2469D
:104FF0002A0026005C469B4609E023003100551C30
:10500000D8474346585D002800D13FE12A00974227
:10501000F3D1A3463D00340056460D9B002B69D0CA
:105020000B9B0A99A846994264D98C466544ED1AAF
:10503000089B47469A46B04626005C463A00230045
:10504000013731002020D047AF42F7D1A3463400CA
:1050500046464FE0D24B2078089300239A4600281A
:1050600000D0E6E5002471E6434606000A9F98005A
:10507000C018013240008019167803003000303823
:10508000303B0928F3D93000984616000A9703E60A
:10509000099B023604CB9046D2434046D2171040BB
:1050A000804609933078F7E513789C46002B00D1B1
:1050B0001AE34346013B66E7102208009043113291
:1050C000104382460022490500D4F2E65346069377
:1050D000082305934346049310230393002302936C
:1050E00016AB019200932A005B4621000898FFF757
:1050F00063F805004B4601360993A6E5202302001C
:105100009A43472A04D180231B0119430223984361
:10511000452801D1202319430722099B0491073315
:1051200093430A9A19000392424602920CC90898C6
:105130000092019309912A005B462100FFF734F9A0
:105140000136050081E510230C930C230A009A43D5
:105150000B924B0500D43BE636E62023194387E645
:1051600002230C930B910B996428EED10B9B5B05EA
:1051700000D529E60B9A802311009B0019408A462E
:105180001A4200D0CEE0802311005B00194089460E
:105190001A4200D0DBE113005B0600D51DE10B9B3A
:1051A00009991B0600D499E208C91BB2D8171A182E
:1051B000424092B209919246DA0F1292002B09D125
:1051C000802310220B99DB000B4091430B91002BA5
:1051D00000D012E10B9A6123920600D541230EA95B
:1051E0001F228C46DBB262440A3B57461395A24607
:1051F0004D460C9CB1460D9316000AE03033DBB2ED
:1052000001357355A74200D21CE1202D00D119E1D0
:1052100007002100380000F0FDFACBB20929EDD9D2
:105220000D9A94466344DBB2EAE7099B5F465B1B39
:1052300098460A9BB3469A462600089C2A003B00E3
:105240003100A04743460135585D0028F6D153464A
:1052500034000A935E46BB46DFE6C0239B00B0786D
:10526000194302363DE5C023B0781943023638E5CC
:105270000A979BE60C230A009A4314331A4310231F
:105280000B920C934B0500D4A8E59DE5A346340092
:105290005646C2E60A9A012A00D82EE26B1E9F18D3
:1052A000089BB046994626005C462A00230001353B
:1052B00031002020C847BD42F7D1A34634004646FE
:1052C000099B3A0001CB210098467D1C5B46089F54
:1052D000C0B2B847434601360993B6E40B9A0A9820
:1052E000531C904200D80AE243199B1A1F00089BE6
:1052F000B24626005C469B462A0023000135310059
:105300002020D847BD42F7D10A9BA34601330B9317
:10531000099B34001B7856469C466046002800D006
:105320005AE6E7E60722099B073393430132944686
:105330009C4462465F6809921A68FB1710931193A8
:1053400010981199030053400E930B007B400F936C
:1053500094460E9A0F9B121A8B410E920F93FB0FDD
:105360006246129300233A439A463DD00B9A61233A
:10537000920600D541230022DBB20EA90A3B8C46DF
:1053800091460D9343461F326244139515964D4640
:105390000E9E0F9FA14690460C9C14930FE0C046B2
:1053A000E54000103032D2B2434601355A55BA4575
:1053B00000D17CE1202D00D17CE106000F0022000D
:1053C00000233000390000F067FAD2B2092AE9D987
:1053D0000D9B9C466244D2B2E6E7FF23099904C9BB
:1053E00013401A000991E6E60B9A10331100994315
:1053F0000B915205BAD5002399460B9B06930A9B45
:105400000593434604930C9B0393129B02934B46D4
:10541000019316AB2A00009321005B460898FEF723
:10542000CBFE01360500FFF710FCFF22099B02CBE3
:1054300011408A460993F2E44B46454609930136EA
:10544000FFF703FC4E465446A946139DD5E70823B3
:105450000C9387E60722099B073393430132944656
:105460009C44624609921A685B6810009A461300D1
:105470005246134307D10B9A1033110099430B91F5
:10548000520500D5D7E40B9A6123920600D541233B
:105490000022DBB20EA90A3B8C4691460D9343468F
:1054A0001F32624457461295A2464D460400B1464B
:1054B00090460C9E13930DE03032D2B24346013534
:1054C0005A550023BB4200D1FDE0202D00D1FDE064
:1054D00004000F00320000232000390000F0DCF946
:1054E000D2B2092AE8D90D9B9C466244D2B2E5E7C4
:1054F0000B9A6123920600D54123DBB20EA90A3B29
:105500001F228C460D9323006244544612951700C7
:105510004D469A46B1460C9E08E03033DBB2013569
:105520007B55B4420ED3202D0CD004003100200056
:1055300000F070F9CBB20929EFD90D9A9446634473
:10554000DBB2ECE74E465446A946129D75E4099B32
:105550001A0008CAD91713925A184A409146DA0F0E
:105560001292002B08D1802310220B99DB000B40F4
:1055700091430B91002B2BD10B9A6123920600D5FE
:1055800041230EAA1F279446DBB20A3B0D956744C0
:1055900055460993A2464C46B1460C9E08E030336E
:1055A000DBB201357B55B4420ED3202D0CD0040064
:1055B0003100200000F02EF9CBB20929EFD9099A69
:1055C00094466344DBB2ECE74E465446AA460D9D32
:1055D0000B9B2A0006930A9B2100059343460493E4
:1055E0000C9B08980393129B013602935346019338
:1055F00016AB00935B46FEF7DFFD139B0500099396
:10560000FFF723FB099B04CB91461293002A08D194
:10561000802310220B99DB000B4091430B91002B50
:105620002BD10B9A6123920600D541230EAA1F2786
:105630009446DBB20A3B0D95674455460993A24652
:105640004C46B1460C9E08E03033DBB201357B5549
:10565000B4420ED3202D0CD004003100200000F005
:10566000D9F8CBB20929EFD9099A94466344DBB241
:10567000ECE74E465446AA460D9D0B9B2A00069326
:105680000A9B21000593434604930C9B08980393BF
:10569000002302935346019316AB00935B46FEF73B
:1056A0008BFD129B050009930136FFF7CEFAB44239
:1056B00000D87FE6149B4C460E960F97A946984655
:1056C000159E139D99E6A64200D8FEE6139B4E4612
:1056D0009846A9465446129DFFF7AFFB08C9D81754
:1056E0001A184240099166E500230B935EE4099B7A
:1056F00004CB92460993FFF792FB2F00E0E50B9352
:105700000BE6063B0C932EE500B585B00391012115
:1057100002900093034813004A4202A9FFF770FA6F
:1057200005B000BD9943001010B5094A0300146884
:1057300084B0002C08D0012200910648524203A9EF
:10574000A047012004B010BD01F06CF80020F9E77B
:10575000380500208943001001480421014B1847F7
:105760003003002089570010142310B50100188859
:1057700004331B88984710BD162310B50100188804
:1057800002331B88984710BDF0B5C64600B5002906
:1057900016D01423040001259846182789004618BE
:1057A0004346216818883B88984701C4431E9841A6
:1057B00040420540A642F3D1280004BC9046F0BD0B
:1057C0000125F9E7124A936F9B0815D29066D166BE
:1057D000002905D0FFE7FFE7FFE7516F106F704723
:1057E00004B580210906C2175140002800D0C843E3
:1057F00001F0FEF9002104BDF0B5146E556E576F2F
:10580000166FFFF7E3FF1466556657671667F0BD1E
:10581000000000D0114A936F9B0813D210665166A6
:10582000002905D0FFE7FFE7FFE7516F106F7047D2
:1058300004B5002801D00020C04301F0D9F90021AF
:1058400004BDC046F0B5146E556E576F166FFFF766
:10585000E5FF1466556657671667F0BD000000D077
:1058600094464E4A926F9208624601D230E0C0469A
:10587000F0B54A4EB56F6D08FCD3346E756E776F18
:10588000366F00F025F89446444A1466556657670B
:1058900016676246F0BDC0469446404A926F920831
:1058A000624601D258E0C046F0B53C4EB56F6D0877
:1058B000FCD3346E756E776F366F00F04DF89446FA
:1058C000364A14665566576716676246F0BDC0468D
:1058D000002B24DB11D000293EDA00B5C943404239
:1058E00000D1013100F038F8C943404200D1013104
:1058F000DB43524200D1013300BD002AEBD1002826
:1059000001D1002905D00020C90FC90701D1C0432A
:10591000410800B501F064F90022002300BD00B584
:1059200000290ADBDB43524200D1013300F014F8B6
:10593000C943404200D1013100BDC943404200D1BA
:105940000131DB43524200D1013300F005F8DB4363
:10595000524200D1013300BD002923D1002B18D1C0
:10596000002A0CD0BC460D4F38667A660021002311
:10597000FFE7FFE7FFE77A6F386F67467047002859
:1059800001D00748010000B501F02AF900220023E8
:1059900000BD02000B00002000217047000000D075
:1059A000FFFFFFFF002B00D0BFE0130C28D1002A1F
:1059B000E7D080B4114F39667A66FFE7FFE730B46D
:1059C000040C7B6F396F1B0423433B667A66FFE749
:1059D000FFE7FFE7C04684B27B6F3D6F1B042343A4
:1059E0003B667A66FFE7FFE7C04600232C042D0CD8
:1059F0007A6F386F00196941B0BC7047000000D061
:105A0000F0B594460025140E01D112020835140F8A
:105A100001D112010435940F01D192000235D40F47
:105A200001D152000135D40B0134254F7C66254C41
:105A30003C660E0C93B2FFE7FFE7FFE73C6F66435F
:105A4000360C7703BE467343DF0B5B04C01AB941C3
:105A5000130C7343DB18C91ACE086643360CB644E0
:105A600093B273431F0F1B01C01AB941130C734348
:105A70001F0B1B05C01AB941860D8F023E436643BA
:105A8000360C092D24DB520A7243801A7703460A2A
:105A90006643360C16235B1BDE40DF40BF196446AD
:105AA0006643821B7046043506330100D940A84086
:105AB000C01900D30131A24206D20023F0BD00007C
:105AC000000000D0FFFFFFFF121B0130F3D3F1E70E
:105AD00009277F1BFE406446A2B27243801A00D29F
